:100000000C9434000C943B020C943B020C943B0285
:100010000C943B020C943B020C943B020C943B026C
:100020000C943B020C943B020C943B020C943B025C
:100030000C943B020C943B020C943B020C943B024C
:100040000C94D8020C943B020C9492050C94B805C5
:100050000C943B020C943B020C943B020C943B022C
:100060000C943B020C943B021124EFEFEDBFE8E04F
:10007000EEBFA0E0B1E0D1E0E0E6FFE002C0059114
:100080000D93A635BD07D9F7A6E5B1E0D1E00C94F4
:100090004A001D92A93EBD07E1F70C948B0018168B
:1000A00081E009F0812D08958115D1F061E0A5E08E
:1000B0008A2F0E94960488E8A3E19A2F0E943C02AE
:1000C000612DA6E08A2F0E94960480E2AEE49A2F6A
:1000D0000E943C0261E0A2E08A2F0E94960419C0AF
:1000E000612DA5E08A2F0E94960488E8A3E19A2F4B
:1000F0000E943C0261E0A6E08A2F0E94960480E202
:10010000AEE49A2F0E943C02612DA2E08A2F0E9449
:100110009604822F08950E940901212C312C86E536
:1001200091E0A4E06A2F0E943106612DA3E08A2F9E
:100130000E94D00361E0A5E08A2F0E94D00361E015
:10014000A6E08A2F0E94D003612DA7E08A2F0E948B
:10015000D00361E0A2E08A2F0E94D003812D0E948B
:10016000540049E551E067E571E086E591E00E94C1
:10017000AD07811521F02090570130905801A7E07C
:100180008A2F0E94EB048130910531F480910101A6
:100190000E944F0080930101A3E08A2F0E94EB048C
:1001A0008093000120910001213041F038E23215A6
:1001B000130424F020910101211519F021E020936E
:1001C000020120910001211551F4A8E22A16310400
:1001D00034F420910101121611F41092020121E071
:1001E00020930201809102010E9454006AEF712D58
:1001F000812D912D0E949F02109202018091020197
:100200000E9454006AEF712D812D912D0E949F0252
:10021000A8CF0E947703089508954427552720E129
:10022000660F771F441F551F481B590B10F0616064
:1002300002C0480F591F2A9599F7CB0108951F93C3
:100240000F93FF92EF92EE24FF2400271127A0E2E4
:10025000220F331F441F551FEE1CFF1C001F111FD0
:10026000E61AF70A080B190B10F0216004C0E60E1D
:10027000F71E081F191FAA9559F7B701C801EF907B
:10028000FF900F911F910895009711F40E94A20111
:100290000E940D01CB010895009711F40E94A20164
:1002A0000E940D01CA01089581159105610571052E
:1002B00011F40E94A2010E941F01B901CA01089510
:1002C0000E94630108959F928F927F926F925F9236
:1002D0004F923F922F92621773078407950728F475
:1002E0001B012C0139014A0104C019012A013B01FB
:1002F0004C01612D712D812D912D16C020FE04C061
:10030000660D771D881D991D9301A401220F331FCF
:10031000441F551F39014A019101A2015695479585
:100320003795279519012A012114310441045104FC
:1003300029F72F903F904F905F906F907F908F9014
:100340009F900895412D512D612D712D88EC912D97
:100350000E94080208950E940C0108950E94AB01BA
:100360000E94370208953FEF212D3817290738F4EE
:100370002FEF312D20935D0130935E0104C08093F7
:100380005D0190935E010E94AE019F928F927F92D9
:100390006F925F924F923F922F92682E392E462E87
:1003A000872E542E752E20910701309108012115BA
:1003B000310569F0662D732D812D912D252D372D59
:1003C000442D582DE0910701F09108010995362D33
:1003D000232D3093050120930601242D382D2093E1
:1003E000030130930401252D372D2093090130930B
:1003F0000A0180910501909106010E94B3012F909E
:100400003F904F905F906F907F908F909F90089556
:10041000DF93CF93CDB7DEB7C650D0400FB6F89478
:10042000DEBF0FBECDBF6A837B834C835D832A8191
:100430002B812C812D81212D312D4A814B814C81A5
:100440004D81412D512D2C833D834A835B834C810B
:100450005D816A817B810E94C501CA5FDF4F0FB653
:10046000F894DEBF0FBECDBFCF91DF9108950C94FD
:100470003902F894FFCFFFCF60E1869F802D712D68
:10048000AA27969F902D970FA11D11248A319105BF
:10049000A10590F08497A109A69597958795A695B3
:1004A0009795879563E0A69F80199109A040112434
:1004B0000197F0F7A150E0F708956F925F924F9285
:1004C0003F922F924FB7F89430901301409014014F
:1004D000509015015091160166B425B32170121683
:1004E00021E008F0212DAFEF6A1631E008F0312D40
:1004F000322329F021E0320E411C511C511D4FBF07
:1005000060910B0170910C0180910D0190910E0191
:1005100020E4312D412D512D0E9454019B01AC014D
:10052000662D712D812D912D731D841D951D0E94A9
:1005300063012F903F904F905F906F9008959F922E
:100540008F927F926F925F924F923F922F921B01F8
:100550002C010E945D023B014C011CC0A1E02A1A43
:1005600031084108510828EE620E23E0721E811CFA
:10057000911C121413041404150460F40E945D020B
:100580006619770988099909683E23E07207810591
:10059000910520F7121413041404150450F32F903E
:1005A0003F904F905F906F907F908F909F900895B5
:1005B000FF93EF93AF939F938F937F936F935F938B
:1005C0004F933F932F932F921F920F920FB60F923C
:1005D000112440910F01509110016091110170910F
:1005E00012018091170120906101420D511D611D82
:1005F000711D20916201820F20916301821740F0EA
:1006000020916301821B21E0420F511D611D711D6C
:100610008093170140930F015093100160931101D3
:100620007093120123E131E0F901608171818281CF
:10063000538141E0640F711D811D511D60837183E1
:10064000828353830F900FBE0F901F902F902F9196
:100650003F914F915F916F917F918F919F91AF915A
:10066000EF91FF911895789424B5226024BD24B5AC
:10067000216024BD25B5226025BD25B5216025BD9D
:1006800020916E00216020936E00109281002091D5
:1006900081002260209381002091810021602093BD
:1006A0008100209180002160209380002091B10082
:1006B00024602093B1002091B00021602093B0000D
:1006C00020917A00246020937A0020917A002260A1
:1006D00020937A0020917A00216020937A00209163
:1006E0007A00206820937A001092C10008956091EA
:1006F0000B0170910C0180910D0190910E01212D43
:1007000030E4412D512D0E94540160935F0170939C
:10071000600160915F017091600188EEA3E09A2F03
:100720000E9444018093610160915F0170916001BA
:1007300088EEA3E09A2F0E944C0196958795969596
:10074000879596958795809362012DE720936301A5
:100750000E9433030895382F343160F481E0E8E1DA
:10076000F1E0E30FF11D2081222329F0880F2A9563
:10077000E9F701C0812D0895843130F4ECE2F1E015
:10078000E80FF11D808101C0812D0895843130F47E
:10079000E0E4F1E0E80FF11D808101C0812D0895B2
:1007A0004F923F922F92282E362E822D0E94AB031D
:1007B000482E822D0E94BC03811509F478C0282F91
:1007C000211589F0322F2A95313081F0322F2A9568
:1007D000313079F0322F2A95313071F0322F2A954D
:1007E000313069F00FC0512D212D0EC0512D212D1A
:1007F0000BC054E2212D08C057E2212D05C05AE25A
:10080000212D02C0512D212D811589F0382F8A9577
:10081000313081F0382F8A95313079F0382F8A9530
:10082000313071F0382F8A95313069F00FC0312D99
:10083000412D0EC0312D412D0BC035E2412D08C098
:1008400038E2412D05C03BE2412D02C0312D412D42
:10085000311491F46FB7F894742D7095E52FF22F41
:10086000808187238083742D7095E32FF42F8081FE
:10087000872380836FBF1BC0A2E03A1681F46FB755
:10088000F894742D7095E52FF22F80818723808353
:10089000E32FF42F7081742970836FBF08C06FB786
:1008A000F894E52FF22F3081342930836FBF2F90D9
:1008B0003F904F9008958130C0F1282F8A952130C4
:1008C00009F1282F8A95213009F1282F8A952130A6
:1008D00069F0282F8A95213079F0282F8350233012
:1008E000C9F0282F8A952130D9F01FC020918000AF
:1008F0002F772093800019C0209180002F7D2093B6
:10090000800013C024B52F7724BD0FC024B52F7DE0
:1009100024BD0BC02091B0002F772093B00005C0FC
:100920002091B0002F7D2093B00008955F924F92E8
:100930003F922F92282E362E822D0E94C603482EDB
:10094000822D0E94AB03582E822D0E94BC03282EBC
:10095000211409F43BC0411419F0842D0E945B045A
:10096000211489F0222D2A94213081F0222D2A94FD
:10097000213079F0222D2A94213071F0222D2A94F1
:10098000213069F00FC0312D212D0EC0312D212DC8
:100990000BC035E2212D08C038E2212D05C03BE215
:1009A000212D02C0312D212D5FB7F894311441F46F
:1009B000452D4095E32FF22F60816423608305C0AD
:1009C000E32FF22F4081452940835FBF2F903F9056
:1009D0004F905F9008956F925F924F923F922F9247
:1009E000282E312C412C822D0E94C603582E822D98
:1009F0000E94AB03682E822D0E94BC03282E211476
:100A000089F1511419F0852D0E945B04211489F09D
:100A1000222D2A94213081F0222D2A94213079F040
:100A2000222D2A94213071F0222D2A94213069F050
:100A30000FC0212D312D0EC0212D312D0BC023E2F1
:100A4000312D08C026E2312D05C029E2312D02C02A
:100A5000212D312DF90120816222161418F4A1E014
:100A60003A2E412C832D942D2F903F904F905F90E4
:100A70006F9008952091C00022FD1FC04091C600D4
:100A8000E1E8F0E0E80FF91F308133953F73E0E8CB
:100A9000F0E0E80FF91F2081231789F0E1E8F0E08A
:100AA000E80FF91F5081FC01E50FF11D4083E1E8DB
:100AB000F0E0E80FF91F308302C04091C6000895AE
:100AC000E2E8F0E0E80FF91F3081E0E4F0E0E80F41
:100AD000F91FE30FF11D3081E2E8F0E0E80FF91FA4
:100AE000208123952F73E2E8F0E0E80FF91F2083BF
:100AF0003093C6002091C000237020642093C00072
:100B0000E2E8F0E0E80FF91F2081E3E8F0E0E80F09
:100B1000F91F3081231729F42091C1002F7D2093E4
:100B2000C1000895FF93EF93BF93AF939F938F936B
:100B30007F936F935F934F933F932F931F920F92E7
:100B40000FB60F92112484E691E00E943A050F90AF
:100B50000FBE0F901F902F913F914F915F916F911A
:100B60007F918F919F91AF91BF91EF91FF911895D8
:100B7000FF93EF93BF93AF939F938F937F936F9365
:100B80005F934F933F932F931F920F920FB60F9245
:100B9000112484E691E00E9460050F900FBE0F9033
:100BA0001F902F913F914F915F916F917F918F9106
:100BB0009F91AF91BF91EF91FF911895382F809140
:100BC00054014A955FEF5395E32FF92FE50FF11D7F
:100BD0002081822778E080FF06C0282F26956CE8C8
:100BE0002627822F01C086957A95A9F7541758F3C6
:100BF000089521E0362F332319F0220F3A95E9F7B3
:100C00003AB1322B3AB921E0662319F0220F6A95E6
:100C1000E9F720953BB132233BB9089521E0362F07
:100C2000332319F0220F3A95E9F720953AB1322390
:100C30003AB921E0662319F0220F6A95E9F7209569
:100C40003BB132233BB9089521E0662319F0220F0E
:100C50006A95E9F739B13223311581E009F4812D24
:100C60000895FC01608360810E940E0608950F9331
:100C70003F922F921C01F1016081C1010E94F90590
:100C800080EEA1E09A2F0E943C02F1016081C10137
:100C90000E940E0686E4912D0E943C02F1016081C3
:100CA000C1010E942406181601E009F0012D8AE90D
:100CB000A1E09A2F0E943C02802F2F903F900F912D
:100CC00008955F924F923F922F921C01462E512C15
:100CD000F1016081C1010E94F90521E0352D332326
:100CE00019F0220F3A95E9F7342D322371F08AE09A
:100CF000912D0E943C02F1016081C1010E940E060B
:100D000087E3912D0E943C020DC081E4912D0E9449
:100D10003C02F1016081C1010E940E0685E0912D27
:100D20000E943C02539427E0251590F62F903F90A7
:100D30004F905F9008955F924F923F922F921C01C7
:100D4000412C512CF1016081C1010E94F90583E021
:100D5000912D0E943C02F1016081C1010E940E06AA
:100D60008AE0912D0E943C02F1016081C1010E9444
:100D70002406811541F021E0352D332319F0220F8F
:100D80003A95E9F7422A85E3912D0E943C0253945B
:100D900027E02515B8F6842D2F903F904F905F9057
:100DA0000895DF93CF938F927F926F925F924F92CD
:100DB0003F922F92CDB7DEB7CB50D0400FB6F8940C
:100DC000DEBF0FBECDBF3C012B011A01F101108225
:100DD000118212821382C3010E943706181641F451
:100DE00051E0F1015083118212821382812CA3C041
:100DF000C301ACEC6A2F0E946106C301A4E46A2F10
:100E00000E9461066EEE72E0812D912D0E949F027C
:100E1000C3010E943706181641F451E0F1015083D6
:100E2000118212821382812C86C0C301ACEC6A2F1E
:100E30000E946106C301AEEB6A2F0E946106C301E6
:100E40000E949B068A83C3010E949B068B83C30179
:100E50000E949B068C83C3010E949B068D83C30165
:100E60000E949B068E83C3010E949B068F83C30151
:100E70000E949B068887C3010E949B068987C30145
:100E80000E949B068A8782E090E08C0F9D1F48E0BD
:100E900068E0712D0E94DE052A85821741F052E03C
:100EA000F1015083118212821382812C44C04B8144
:100EB0006A81312D6129342B732F812D37FD809567
:100EC000982F24E6312D412D512D0E946001362F9F
:100ED000472F582F292F2223212D0AF42A95522FEC
:100EE000422F322F3F70630F711D811D911D34E021
:100EF000332331F095958795779567953A95D1F796
:100F0000562F272F54582A4E8F4F9F4FA0E56A2EF9
:100F1000A6E46516A2071806190640F453E0F1018D
:100F20005083118212821382812C05C0F2016083EA
:100F30007183A1E08A2E882DC55FDF4F0FB6F8942C
:100F4000DEBF0FBECDBF2F903F904F905F906F9050
:100F50007F908F90CF91DF9108950E94D1060895E0
:100F60000000000000000000000000100000000071
:100F70000000000000000000000102030405060755
:100F80000001020304050001020304050404040433
:100F90000404040402020202020203030303030323
:100FA0000000000800020100000304070000000028
:060FB0000000000000003B
:00000001FF
